{
  "_format": "hh-sol-artifact-1",
  "contractName": "NftMarketPlace",
  "sourceName": "contracts/NftMarketPlace.sol",
  "abi": [
    {
      "inputs": [],
      "stateMutability": "nonpayable",
      "type": "constructor"
    },
    {
      "anonymous": false,
      "inputs": [
        {
          "indexed": true,
          "internalType": "address",
          "name": "owner",
          "type": "address"
        },
        {
          "indexed": true,
          "internalType": "address",
          "name": "approved",
          "type": "address"
        },
        {
          "indexed": true,
          "internalType": "uint256",
          "name": "tokenId",
          "type": "uint256"
        }
      ],
      "name": "Approval",
      "type": "event"
    },
    {
      "anonymous": false,
      "inputs": [
        {
          "indexed": true,
          "internalType": "address",
          "name": "owner",
          "type": "address"
        },
        {
          "indexed": true,
          "internalType": "address",
          "name": "operator",
          "type": "address"
        },
        {
          "indexed": false,
          "internalType": "bool",
          "name": "approved",
          "type": "bool"
        }
      ],
      "name": "ApprovalForAll",
      "type": "event"
    },
    {
      "anonymous": false,
      "inputs": [
        {
          "indexed": true,
          "internalType": "uint256",
          "name": "tokenId",
          "type": "uint256"
        },
        {
          "indexed": false,
          "internalType": "address",
          "name": "offerer",
          "type": "address"
        },
        {
          "indexed": false,
          "internalType": "uint256",
          "name": "amount",
          "type": "uint256"
        }
      ],
      "name": "OfferMade",
      "type": "event"
    },
    {
      "anonymous": false,
      "inputs": [
        {
          "indexed": true,
          "internalType": "address",
          "name": "from",
          "type": "address"
        },
        {
          "indexed": true,
          "internalType": "address",
          "name": "to",
          "type": "address"
        },
        {
          "indexed": true,
          "internalType": "uint256",
          "name": "tokenId",
          "type": "uint256"
        }
      ],
      "name": "Transfer",
      "type": "event"
    },
    {
      "anonymous": false,
      "inputs": [
        {
          "indexed": true,
          "internalType": "uint256",
          "name": "tokenId",
          "type": "uint256"
        },
        {
          "indexed": false,
          "internalType": "address",
          "name": "seller",
          "type": "address"
        },
        {
          "indexed": false,
          "internalType": "address",
          "name": "buyer",
          "type": "address"
        },
        {
          "indexed": false,
          "internalType": "uint256",
          "name": "price",
          "type": "uint256"
        },
        {
          "indexed": false,
          "internalType": "bool",
          "name": "sold",
          "type": "bool"
        }
      ],
      "name": "idMarketItemCreated",
      "type": "event"
    },
    {
      "inputs": [
        {
          "internalType": "address",
          "name": "to",
          "type": "address"
        },
        {
          "internalType": "uint256",
          "name": "tokenId",
          "type": "uint256"
        }
      ],
      "name": "approve",
      "outputs": [],
      "stateMutability": "nonpayable",
      "type": "function"
    },
    {
      "inputs": [
        {
          "internalType": "address",
          "name": "owner",
          "type": "address"
        }
      ],
      "name": "balanceOf",
      "outputs": [
        {
          "internalType": "uint256",
          "name": "",
          "type": "uint256"
        }
      ],
      "stateMutability": "view",
      "type": "function"
    },
    {
      "inputs": [
        {
          "internalType": "uint256",
          "name": "_tokenId",
          "type": "uint256"
        }
      ],
      "name": "createMarketSale",
      "outputs": [],
      "stateMutability": "payable",
      "type": "function"
    },
    {
      "inputs": [
        {
          "internalType": "string",
          "name": "_tokenURI",
          "type": "string"
        },
        {
          "internalType": "uint256",
          "name": "_price",
          "type": "uint256"
        }
      ],
      "name": "createToken",
      "outputs": [
        {
          "internalType": "uint256",
          "name": "",
          "type": "uint256"
        }
      ],
      "stateMutability": "payable",
      "type": "function"
    },
    {
      "inputs": [],
      "name": "fecthMyNFT",
      "outputs": [
        {
          "components": [
            {
              "internalType": "uint256",
              "name": "tokenId",
              "type": "uint256"
            },
            {
              "internalType": "address payable",
              "name": "seller",
              "type": "address"
            },
            {
              "internalType": "address payable",
              "name": "owner",
              "type": "address"
            },
            {
              "internalType": "uint256",
              "name": "price",
              "type": "uint256"
            },
            {
              "internalType": "bool",
              "name": "sold",
              "type": "bool"
            }
          ],
          "internalType": "struct NftMarketPlace.MarketItem[]",
          "name": "",
          "type": "tuple[]"
        }
      ],
      "stateMutability": "view",
      "type": "function"
    },
    {
      "inputs": [],
      "name": "fetchItemListed",
      "outputs": [
        {
          "components": [
            {
              "internalType": "uint256",
              "name": "tokenId",
              "type": "uint256"
            },
            {
              "internalType": "address payable",
              "name": "seller",
              "type": "address"
            },
            {
              "internalType": "address payable",
              "name": "owner",
              "type": "address"
            },
            {
              "internalType": "uint256",
              "name": "price",
              "type": "uint256"
            },
            {
              "internalType": "bool",
              "name": "sold",
              "type": "bool"
            }
          ],
          "internalType": "struct NftMarketPlace.MarketItem[]",
          "name": "",
          "type": "tuple[]"
        }
      ],
      "stateMutability": "view",
      "type": "function"
    },
    {
      "inputs": [],
      "name": "fetchMarketItem",
      "outputs": [
        {
          "components": [
            {
              "internalType": "uint256",
              "name": "tokenId",
              "type": "uint256"
            },
            {
              "internalType": "address payable",
              "name": "seller",
              "type": "address"
            },
            {
              "internalType": "address payable",
              "name": "owner",
              "type": "address"
            },
            {
              "internalType": "uint256",
              "name": "price",
              "type": "uint256"
            },
            {
              "internalType": "bool",
              "name": "sold",
              "type": "bool"
            }
          ],
          "internalType": "struct NftMarketPlace.MarketItem[]",
          "name": "",
          "type": "tuple[]"
        }
      ],
      "stateMutability": "view",
      "type": "function"
    },
    {
      "inputs": [
        {
          "internalType": "uint256",
          "name": "tokenId",
          "type": "uint256"
        }
      ],
      "name": "getApproved",
      "outputs": [
        {
          "internalType": "address",
          "name": "",
          "type": "address"
        }
      ],
      "stateMutability": "view",
      "type": "function"
    },
    {
      "inputs": [],
      "name": "getListingPrice",
      "outputs": [
        {
          "internalType": "uint256",
          "name": "",
          "type": "uint256"
        }
      ],
      "stateMutability": "view",
      "type": "function"
    },
    {
      "inputs": [
        {
          "internalType": "address",
          "name": "owner",
          "type": "address"
        },
        {
          "internalType": "address",
          "name": "operator",
          "type": "address"
        }
      ],
      "name": "isApprovedForAll",
      "outputs": [
        {
          "internalType": "bool",
          "name": "",
          "type": "bool"
        }
      ],
      "stateMutability": "view",
      "type": "function"
    },
    {
      "inputs": [
        {
          "internalType": "uint256",
          "name": "_tokenId",
          "type": "uint256"
        },
        {
          "internalType": "uint256",
          "name": "price",
          "type": "uint256"
        }
      ],
      "name": "makeOffer",
      "outputs": [],
      "stateMutability": "payable",
      "type": "function"
    },
    {
      "inputs": [],
      "name": "name",
      "outputs": [
        {
          "internalType": "string",
          "name": "",
          "type": "string"
        }
      ],
      "stateMutability": "view",
      "type": "function"
    },
    {
      "inputs": [
        {
          "internalType": "uint256",
          "name": "tokenId",
          "type": "uint256"
        }
      ],
      "name": "ownerOf",
      "outputs": [
        {
          "internalType": "address",
          "name": "",
          "type": "address"
        }
      ],
      "stateMutability": "view",
      "type": "function"
    },
    {
      "inputs": [
        {
          "internalType": "uint256",
          "name": "_tokenId",
          "type": "uint256"
        },
        {
          "internalType": "uint256",
          "name": "_price",
          "type": "uint256"
        }
      ],
      "name": "resellToken",
      "outputs": [],
      "stateMutability": "payable",
      "type": "function"
    },
    {
      "inputs": [
        {
          "internalType": "address",
          "name": "from",
          "type": "address"
        },
        {
          "internalType": "address",
          "name": "to",
          "type": "address"
        },
        {
          "internalType": "uint256",
          "name": "tokenId",
          "type": "uint256"
        }
      ],
      "name": "safeTransferFrom",
      "outputs": [],
      "stateMutability": "nonpayable",
      "type": "function"
    },
    {
      "inputs": [
        {
          "internalType": "address",
          "name": "from",
          "type": "address"
        },
        {
          "internalType": "address",
          "name": "to",
          "type": "address"
        },
        {
          "internalType": "uint256",
          "name": "tokenId",
          "type": "uint256"
        },
        {
          "internalType": "bytes",
          "name": "data",
          "type": "bytes"
        }
      ],
      "name": "safeTransferFrom",
      "outputs": [],
      "stateMutability": "nonpayable",
      "type": "function"
    },
    {
      "inputs": [
        {
          "internalType": "address",
          "name": "operator",
          "type": "address"
        },
        {
          "internalType": "bool",
          "name": "approved",
          "type": "bool"
        }
      ],
      "name": "setApprovalForAll",
      "outputs": [],
      "stateMutability": "nonpayable",
      "type": "function"
    },
    {
      "inputs": [
        {
          "internalType": "bytes4",
          "name": "interfaceId",
          "type": "bytes4"
        }
      ],
      "name": "supportsInterface",
      "outputs": [
        {
          "internalType": "bool",
          "name": "",
          "type": "bool"
        }
      ],
      "stateMutability": "view",
      "type": "function"
    },
    {
      "inputs": [],
      "name": "symbol",
      "outputs": [
        {
          "internalType": "string",
          "name": "",
          "type": "string"
        }
      ],
      "stateMutability": "view",
      "type": "function"
    },
    {
      "inputs": [
        {
          "internalType": "uint256",
          "name": "tokenId",
          "type": "uint256"
        }
      ],
      "name": "tokenURI",
      "outputs": [
        {
          "internalType": "string",
          "name": "",
          "type": "string"
        }
      ],
      "stateMutability": "view",
      "type": "function"
    },
    {
      "inputs": [
        {
          "internalType": "address",
          "name": "from",
          "type": "address"
        },
        {
          "internalType": "address",
          "name": "to",
          "type": "address"
        },
        {
          "internalType": "uint256",
          "name": "tokenId",
          "type": "uint256"
        }
      ],
      "name": "transferFrom",
      "outputs": [],
      "stateMutability": "nonpayable",
      "type": "function"
    },
    {
      "inputs": [
        {
          "internalType": "uint256",
          "name": "_listingPrice",
          "type": "uint256"
        }
      ],
      "name": "updateListingPrice",
      "outputs": [],
      "stateMutability": "payable",
      "type": "function"
    }
  ],
  "bytecode": "0x60a06040526605543df729c0006009553480156200001c57600080fd5b506040518060400160405280601381526020017f4e4654204d657461766572736520546f6b656e000000000000000000000000008152506040518060400160405280600481526020017f4d4554410000000000000000000000000000000000000000000000000000000081525081600090816200009a919062000363565b508060019081620000ac919062000363565b5050503373ffffffffffffffffffffffffffffffffffffffff1660808173ffffffffffffffffffffffffffffffffffffffff16815250506200044a565b600081519050919050565b7f4e487b7100000000000000000000000000000000000000000000000000000000600052604160045260246000fd5b7f4e487b7100000000000000000000000000000000000000000000000000000000600052602260045260246000fd5b600060028204905060018216806200016b57607f821691505b60208210810362000181576200018062000123565b5b50919050565b60008190508160005260206000209050919050565b60006020601f8301049050919050565b600082821b905092915050565b600060088302620001eb7fffffffffffffffffffffffffffffffffffffffffffffffffffffffffffffffff82620001ac565b620001f78683620001ac565b95508019841693508086168417925050509392505050565b6000819050919050565b6000819050919050565b6000620002446200023e62000238846200020f565b62000219565b6200020f565b9050919050565b6000819050919050565b620002608362000223565b620002786200026f826200024b565b848454620001b9565b825550505050565b600090565b6200028f62000280565b6200029c81848462000255565b505050565b5b81811015620002c457620002b860008262000285565b600181019050620002a2565b5050565b601f8211156200031357620002dd8162000187565b620002e8846200019c565b81016020851015620002f8578190505b6200031062000307856200019c565b830182620002a1565b50505b505050565b600082821c905092915050565b6000620003386000198460080262000318565b1980831691505092915050565b600062000353838362000325565b9150826002028217905092915050565b6200036e82620000e9565b67ffffffffffffffff8111156200038a5762000389620000f4565b5b62000396825462000152565b620003a3828285620002c8565b600060209050601f831160018114620003db5760008415620003c6578287015190505b620003d2858262000345565b86555062000442565b601f198416620003eb8662000187565b60005b828110156200041557848901518255600182019150602085019450602081019050620003ee565b8683101562000435578489015162000431601f89168262000325565b8355505b6001600288020188555050505b505050505050565b6080516145a86200046d60003960008181610f87015261146401526145a86000f3fe6080604052600436106101355760003560e01c80638fafd021116100ab578063b88d4fde1161006f578063b88d4fde14610411578063be9af5361461043a578063c87b56dd14610456578063e179144514610493578063e219fc75146104be578063e985e9c5146104da57610135565b80638fafd0211461034b57806395d89b4114610376578063a22cb465146103a1578063ae677aa3146103ca578063b83eb6c4146103e657610135565b806312e85585116100fd57806312e855851461022457806323b872dd1461024f57806342842e0e146102785780636352211e146102a157806370a08231146102de57806372b3b6201461031b57610135565b806301ffc9a71461013a57806305b7cdd31461017757806306fdde0314610193578063081812fc146101be578063095ea7b3146101fb575b600080fd5b34801561014657600080fd5b50610161600480360381019061015c9190612d4b565b610517565b60405161016e9190612d93565b60405180910390f35b610191600480360381019061018c9190612de4565b6105f9565b005b34801561019f57600080fd5b506101a861087d565b6040516101b59190612eb4565b60405180910390f35b3480156101ca57600080fd5b506101e560048036038101906101e09190612ed6565b61090f565b6040516101f29190612f44565b60405180910390f35b34801561020757600080fd5b50610222600480360381019061021d9190612f8b565b610955565b005b34801561023057600080fd5b50610239610a6c565b6040516102469190612fda565b60405180910390f35b34801561025b57600080fd5b5061027660048036038101906102719190612ff5565b610a76565b005b34801561028457600080fd5b5061029f600480360381019061029a9190612ff5565b610ad6565b005b3480156102ad57600080fd5b506102c860048036038101906102c39190612ed6565b610af6565b6040516102d59190612f44565b60405180910390f35b3480156102ea57600080fd5b5061030560048036038101906103009190613048565b610b7c565b6040516103129190612fda565b60405180910390f35b610335600480360381019061033091906131aa565b610c33565b6040516103429190612fda565b60405180910390f35b34801561035757600080fd5b50610360610c75565b60405161036d919061335c565b60405180910390f35b34801561038257600080fd5b5061038b610edd565b6040516103989190612eb4565b60405180910390f35b3480156103ad57600080fd5b506103c860048036038101906103c391906133aa565b610f6f565b005b6103e460048036038101906103df9190612ed6565b610f85565b005b3480156103f257600080fd5b506103fb61101d565b604051610408919061335c565b60405180910390f35b34801561041d57600080fd5b506104386004803603810190610433919061348b565b611309565b005b610454600480360381019061044f9190612ed6565b61136b565b005b34801561046257600080fd5b5061047d60048036038101906104789190612ed6565b61154c565b60405161048a9190612eb4565b60405180910390f35b34801561049f57600080fd5b506104a861165e565b6040516104b5919061335c565b60405180910390f35b6104d860048036038101906104d39190612de4565b61194a565b005b3480156104e657600080fd5b5061050160048036038101906104fc919061350e565b611b40565b60405161050e9190612d93565b60405180910390f35b60007f80ac58cd000000000000000000000000000000000000000000000000000000007bffffffffffffffffffffffffffffffffffffffffffffffffffffffff1916827bffffffffffffffffffffffffffffffffffffffffffffffffffffffff191614806105e257507f5b5e139f000000000000000000000000000000000000000000000000000000007bffffffffffffffffffffffffffffffffffffffffffffffffffffffff1916827bffffffffffffffffffffffffffffffffffffffffffffffffffffffff1916145b806105f257506105f182611bd4565b5b9050919050565b600073ffffffffffffffffffffffffffffffffffffffff16600a600084815260200190815260200160002060020160009054906101000a900473ffffffffffffffffffffffffffffffffffffffff1673ffffffffffffffffffffffffffffffffffffffff160361069e576040517f08c379a00000000000000000000000000000000000000000000000000000000081526004016106959061359a565b60405180910390fd5b3373ffffffffffffffffffffffffffffffffffffffff16600a600084815260200190815260200160002060020160009054906101000a900473ffffffffffffffffffffffffffffffffffffffff1673ffffffffffffffffffffffffffffffffffffffff1603610742576040517f08c379a000000000000000000000000000000000000000000000000000000000815260040161073990613606565b60405180910390fd5b60008111610785576040517f08c379a000000000000000000000000000000000000000000000000000000000815260040161077c90613698565b60405180910390fd5b600b600083815260200190815260200160002060405180604001604052803373ffffffffffffffffffffffffffffffffffffffff16815260200183815250908060018154018082558091505060019003906000526020600020906002020160009091909190915060008201518160000160006101000a81548173ffffffffffffffffffffffffffffffffffffffff021916908373ffffffffffffffffffffffffffffffffffffffff160217905550602082015181600101555050817fbdf1e76c2ba2a5c85b93bf78678a4a3b06d63b18422612dac8d7d5249ed4671433836040516108719291906136b8565b60405180910390a25050565b60606000805461088c90613710565b80601f01602080910402602001604051908101604052809291908181526020018280546108b890613710565b80156109055780601f106108da57610100808354040283529160200191610905565b820191906000526020600020905b8154815290600101906020018083116108e857829003601f168201915b5050505050905090565b600061091a82611c3e565b6004600083815260200190815260200160002060009054906101000a900473ffffffffffffffffffffffffffffffffffffffff169050919050565b600061096082610af6565b90508073ffffffffffffffffffffffffffffffffffffffff168373ffffffffffffffffffffffffffffffffffffffff16036109d0576040517f08c379a00000000000000000000000000000000000000000000000000000000081526004016109c7906137b3565b60405180910390fd5b8073ffffffffffffffffffffffffffffffffffffffff166109ef611c89565b73ffffffffffffffffffffffffffffffffffffffff161480610a1e5750610a1d81610a18611c89565b611b40565b5b610a5d576040517f08c379a0000000000000000000000000000000000000000000000000000000008152600401610a5490613845565b60405180910390fd5b610a678383611c91565b505050565b6000600954905090565b610a87610a81611c89565b82611d4a565b610ac6576040517f08c379a0000000000000000000000000000000000000000000000000000000008152600401610abd906138d7565b60405180910390fd5b610ad1838383611ddf565b505050565b610af183838360405180602001604052806000815250611309565b505050565b600080610b02836120d8565b9050600073ffffffffffffffffffffffffffffffffffffffff168173ffffffffffffffffffffffffffffffffffffffff1603610b73576040517f08c379a0000000000000000000000000000000000000000000000000000000008152600401610b6a90613943565b60405180910390fd5b80915050919050565b60008073ffffffffffffffffffffffffffffffffffffffff168273ffffffffffffffffffffffffffffffffffffffff1603610bec576040517f08c379a0000000000000000000000000000000000000000000000000000000008152600401610be3906139d5565b60405180910390fd5b600360008373ffffffffffffffffffffffffffffffffffffffff1673ffffffffffffffffffffffffffffffffffffffff168152602001908152602001600020549050919050565b6000610c3f6007612115565b6000610c4b600761212b565b9050610c573382612139565b610c618185612356565b610c6b81846123c3565b8091505092915050565b60606000610c83600761212b565b90506000610c91600861212b565b610c9b600761212b565b610ca59190613a24565b90506000808267ffffffffffffffff811115610cc457610cc361307f565b5b604051908082528060200260200182016040528015610cfd57816020015b610cea612c82565b815260200190600190039081610ce25790505b50905060005b84811015610ed2573073ffffffffffffffffffffffffffffffffffffffff16600a6000600184610d339190613a58565b815260200190815260200160002060020160009054906101000a900473ffffffffffffffffffffffffffffffffffffffff1673ffffffffffffffffffffffffffffffffffffffff1603610ebf576000600182610d8f9190613a58565b90506000600a60008381526020019081526020016000209050806040518060a0016040529081600082015481526020016001820160009054906101000a900473ffffffffffffffffffffffffffffffffffffffff1673ffffffffffffffffffffffffffffffffffffffff1673ffffffffffffffffffffffffffffffffffffffff1681526020016002820160009054906101000a900473ffffffffffffffffffffffffffffffffffffffff1673ffffffffffffffffffffffffffffffffffffffff1673ffffffffffffffffffffffffffffffffffffffff168152602001600382015481526020016004820160009054906101000a900460ff161515151581525050848681518110610ea257610ea1613a8c565b5b6020026020010181905250600185610eba9190613a58565b945050505b8080610eca90613abb565b915050610d03565b508094505050505090565b606060018054610eec90613710565b80601f0160208091040260200160405190810160405280929190818152602001828054610f1890613710565b8015610f655780601f10610f3a57610100808354040283529160200191610f65565b820191906000526020600020905b815481529060010190602001808311610f4857829003601f168201915b5050505050905090565b610f81610f7a611c89565b83836125c7565b5050565b7f000000000000000000000000000000000000000000000000000000000000000073ffffffffffffffffffffffffffffffffffffffff163373ffffffffffffffffffffffffffffffffffffffff1614611013576040517f08c379a000000000000000000000000000000000000000000000000000000000815260040161100a90613b4f565b60405180910390fd5b8060098190555050565b6060600061102b600761212b565b905060008060005b838110156110d3573373ffffffffffffffffffffffffffffffffffffffff16600a60006001846110639190613a58565b815260200190815260200160002060020160009054906101000a900473ffffffffffffffffffffffffffffffffffffffff1673ffffffffffffffffffffffffffffffffffffffff16036110c0576001836110bd9190613a58565b92505b80806110cb90613abb565b915050611033565b5060008267ffffffffffffffff8111156110f0576110ef61307f565b5b60405190808252806020026020018201604052801561112957816020015b611116612c82565b81526020019060019003908161110e5790505b50905060005b848110156112fe573373ffffffffffffffffffffffffffffffffffffffff16600a600060018461115f9190613a58565b815260200190815260200160002060020160009054906101000a900473ffffffffffffffffffffffffffffffffffffffff1673ffffffffffffffffffffffffffffffffffffffff16036112eb5760006001826111bb9190613a58565b90506000600a60008381526020019081526020016000209050806040518060a0016040529081600082015481526020016001820160009054906101000a900473ffffffffffffffffffffffffffffffffffffffff1673ffffffffffffffffffffffffffffffffffffffff1673ffffffffffffffffffffffffffffffffffffffff1681526020016002820160009054906101000a900473ffffffffffffffffffffffffffffffffffffffff1673ffffffffffffffffffffffffffffffffffffffff1673ffffffffffffffffffffffffffffffffffffffff168152602001600382015481526020016004820160009054906101000a900460ff1615151515815250508486815181106112ce576112cd613a8c565b5b60200260200101819052506001856112e69190613a58565b945050505b80806112f690613abb565b91505061112f565b508094505050505090565b61131a611314611c89565b83611d4a565b611359576040517f08c379a0000000000000000000000000000000000000000000000000000000008152600401611350906138d7565b60405180910390fd5b61136584848484612733565b50505050565b6000600a6000838152602001908152602001600020600301549050803410156113c9576040517f08c379a00000000000000000000000000000000000000000000000000000000081526004016113c090613bbb565b60405180910390fd5b33600a600084815260200190815260200160002060020160006101000a81548173ffffffffffffffffffffffffffffffffffffffff021916908373ffffffffffffffffffffffffffffffffffffffff1602179055506001600a600084815260200190815260200160002060040160006101000a81548160ff0219169083151502179055506114576008612115565b611462303384611ddf565b7f000000000000000000000000000000000000000000000000000000000000000073ffffffffffffffffffffffffffffffffffffffff166108fc6009549081150290604051600060405180830381858888f193505050501580156114ca573d6000803e3d6000fd5b50600a600083815260200190815260200160002060010160009054906101000a900473ffffffffffffffffffffffffffffffffffffffff1673ffffffffffffffffffffffffffffffffffffffff166108fc349081150290604051600060405180830381858888f19350505050158015611547573d6000803e3d6000fd5b505050565b606061155782611c3e565b600060066000848152602001908152602001600020805461157790613710565b80601f01602080910402602001604051908101604052809291908181526020018280546115a390613710565b80156115f05780601f106115c5576101008083540402835291602001916115f0565b820191906000526020600020905b8154815290600101906020018083116115d357829003601f168201915b50505050509050600061160161278f565b90506000815103611616578192505050611659565b60008251111561164b578082604051602001611633929190613c17565b60405160208183030381529060405292505050611659565b611654846127a6565b925050505b919050565b6060600061166c600761212b565b905060008060005b83811015611714573373ffffffffffffffffffffffffffffffffffffffff16600a60006001846116a49190613a58565b815260200190815260200160002060010160009054906101000a900473ffffffffffffffffffffffffffffffffffffffff1673ffffffffffffffffffffffffffffffffffffffff1603611701576001836116fe9190613a58565b92505b808061170c90613abb565b915050611674565b5060008267ffffffffffffffff8111156117315761173061307f565b5b60405190808252806020026020018201604052801561176a57816020015b611757612c82565b81526020019060019003908161174f5790505b50905060005b8481101561193f573373ffffffffffffffffffffffffffffffffffffffff16600a60006001846117a09190613a58565b815260200190815260200160002060010160009054906101000a900473ffffffffffffffffffffffffffffffffffffffff1673ffffffffffffffffffffffffffffffffffffffff160361192c5760006001826117fc9190613a58565b90506000600a60008381526020019081526020016000209050806040518060a0016040529081600082015481526020016001820160009054906101000a900473ffffffffffffffffffffffffffffffffffffffff1673ffffffffffffffffffffffffffffffffffffffff1673ffffffffffffffffffffffffffffffffffffffff1681526020016002820160009054906101000a900473ffffffffffffffffffffffffffffffffffffffff1673ffffffffffffffffffffffffffffffffffffffff1673ffffffffffffffffffffffffffffffffffffffff168152602001600382015481526020016004820160009054906101000a900460ff16151515158152505084868151811061190f5761190e613a8c565b5b60200260200101819052506001856119279190613a58565b945050505b808061193790613abb565b915050611770565b508094505050505090565b3373ffffffffffffffffffffffffffffffffffffffff16600a600084815260200190815260200160002060020160009054906101000a900473ffffffffffffffffffffffffffffffffffffffff1673ffffffffffffffffffffffffffffffffffffffff16146119ee576040517f08c379a00000000000000000000000000000000000000000000000000000000081526004016119e590613c87565b60405180910390fd5b600954341015611a33576040517f08c379a0000000000000000000000000000000000000000000000000000000008152600401611a2a90613d19565b60405180910390fd5b6000600a600084815260200190815260200160002060040160006101000a81548160ff02191690831515021790555080600a60008481526020019081526020016000206003018190555033600a600084815260200190815260200160002060010160006101000a81548173ffffffffffffffffffffffffffffffffffffffff021916908373ffffffffffffffffffffffffffffffffffffffff16021790555030600a600084815260200190815260200160002060020160006101000a81548173ffffffffffffffffffffffffffffffffffffffff021916908373ffffffffffffffffffffffffffffffffffffffff160217905550611b31600861280e565b611b3c333084611ddf565b5050565b6000600560008473ffffffffffffffffffffffffffffffffffffffff1673ffffffffffffffffffffffffffffffffffffffff16815260200190815260200160002060008373ffffffffffffffffffffffffffffffffffffffff1673ffffffffffffffffffffffffffffffffffffffff16815260200190815260200160002060009054906101000a900460ff16905092915050565b60007f01ffc9a7000000000000000000000000000000000000000000000000000000007bffffffffffffffffffffffffffffffffffffffffffffffffffffffff1916827bffffffffffffffffffffffffffffffffffffffffffffffffffffffff1916149050919050565b611c478161286a565b611c86576040517f08c379a0000000000000000000000000000000000000000000000000000000008152600401611c7d90613943565b60405180910390fd5b50565b600033905090565b816004600083815260200190815260200160002060006101000a81548173ffffffffffffffffffffffffffffffffffffffff021916908373ffffffffffffffffffffffffffffffffffffffff160217905550808273ffffffffffffffffffffffffffffffffffffffff16611d0483610af6565b73ffffffffffffffffffffffffffffffffffffffff167f8c5be1e5ebec7d5bd14f71427d1e84f3dd0314c0f7b2291e5b200ac8c7c3b92560405160405180910390a45050565b600080611d5683610af6565b90508073ffffffffffffffffffffffffffffffffffffffff168473ffffffffffffffffffffffffffffffffffffffff161480611d985750611d978185611b40565b5b80611dd657508373ffffffffffffffffffffffffffffffffffffffff16611dbe8461090f565b73ffffffffffffffffffffffffffffffffffffffff16145b91505092915050565b8273ffffffffffffffffffffffffffffffffffffffff16611dff82610af6565b73ffffffffffffffffffffffffffffffffffffffff1614611e55576040517f08c379a0000000000000000000000000000000000000000000000000000000008152600401611e4c90613dab565b60405180910390fd5b600073ffffffffffffffffffffffffffffffffffffffff168273ffffffffffffffffffffffffffffffffffffffff1603611ec4576040517f08c379a0000000000000000000000000000000000000000000000000000000008152600401611ebb90613e3d565b60405180910390fd5b611ed183838360016128ab565b8273ffffffffffffffffffffffffffffffffffffffff16611ef182610af6565b73ffffffffffffffffffffffffffffffffffffffff1614611f47576040517f08c379a0000000000000000000000000000000000000000000000000000000008152600401611f3e90613dab565b60405180910390fd5b6004600082815260200190815260200160002060006101000a81549073ffffffffffffffffffffffffffffffffffffffff02191690556001600360008573ffffffffffffffffffffffffffffffffffffffff1673ffffffffffffffffffffffffffffffffffffffff168152602001908152602001600020600082825403925050819055506001600360008473ffffffffffffffffffffffffffffffffffffffff1673ffffffffffffffffffffffffffffffffffffffff16815260200190815260200160002060008282540192505081905550816002600083815260200190815260200160002060006101000a81548173ffffffffffffffffffffffffffffffffffffffff021916908373ffffffffffffffffffffffffffffffffffffffff160217905550808273ffffffffffffffffffffffffffffffffffffffff168473ffffffffffffffffffffffffffffffffffffffff167fddf252ad1be2c89b69c2b068fc378daa952ba7f163c4a11628f55a4df523b3ef60405160405180910390a46120d383838360016128b1565b505050565b60006002600083815260200190815260200160002060009054906101000a900473ffffffffffffffffffffffffffffffffffffffff169050919050565b6001816000016000828254019250508190555050565b600081600001549050919050565b600073ffffffffffffffffffffffffffffffffffffffff168273ffffffffffffffffffffffffffffffffffffffff16036121a8576040517f08c379a000000000000000000000000000000000000000000000000000000000815260040161219f90613ea9565b60405180910390fd5b6121b18161286a565b156121f1576040517f08c379a00000000000000000000000000000000000000000000000000000000081526004016121e890613f15565b60405180910390fd5b6121ff6000838360016128ab565b6122088161286a565b15612248576040517f08c379a000000000000000000000000000000000000000000000000000000000815260040161223f90613f15565b60405180910390fd5b6001600360008473ffffffffffffffffffffffffffffffffffffffff1673ffffffffffffffffffffffffffffffffffffffff16815260200190815260200160002060008282540192505081905550816002600083815260200190815260200160002060006101000a81548173ffffffffffffffffffffffffffffffffffffffff021916908373ffffffffffffffffffffffffffffffffffffffff160217905550808273ffffffffffffffffffffffffffffffffffffffff16600073ffffffffffffffffffffffffffffffffffffffff167fddf252ad1be2c89b69c2b068fc378daa952ba7f163c4a11628f55a4df523b3ef60405160405180910390a46123526000838360016128b1565b5050565b61235f8261286a565b61239e576040517f08c379a000000000000000000000000000000000000000000000000000000000815260040161239590613fa7565b60405180910390fd5b806006600084815260200190815260200160002090816123be9190614173565b505050565b60008111612406576040517f08c379a00000000000000000000000000000000000000000000000000000000081526004016123fd90614291565b60405180910390fd5b60095434101561244b576040517f08c379a000000000000000000000000000000000000000000000000000000000815260040161244290613d19565b60405180910390fd5b6040518060a001604052808381526020013373ffffffffffffffffffffffffffffffffffffffff1681526020013073ffffffffffffffffffffffffffffffffffffffff16815260200182815260200160001515815250600a60008481526020019081526020016000206000820151816000015560208201518160010160006101000a81548173ffffffffffffffffffffffffffffffffffffffff021916908373ffffffffffffffffffffffffffffffffffffffff16021790555060408201518160020160006101000a81548173ffffffffffffffffffffffffffffffffffffffff021916908373ffffffffffffffffffffffffffffffffffffffff1602179055506060820151816003015560808201518160040160006101000a81548160ff021916908315150217905550905050612584333084611ddf565b817fdebdb32cb5230ab727c9c361b16fdb2015df225c10e6a3e7f60ecd5dc5be451633308460006040516125bb94939291906142b1565b60405180910390a25050565b8173ffffffffffffffffffffffffffffffffffffffff168373ffffffffffffffffffffffffffffffffffffffff1603612635576040517f08c379a000000000000000000000000000000000000000000000000000000000815260040161262c90614342565b60405180910390fd5b80600560008573ffffffffffffffffffffffffffffffffffffffff1673ffffffffffffffffffffffffffffffffffffffff16815260200190815260200160002060008473ffffffffffffffffffffffffffffffffffffffff1673ffffffffffffffffffffffffffffffffffffffff16815260200190815260200160002060006101000a81548160ff0219169083151502179055508173ffffffffffffffffffffffffffffffffffffffff168373ffffffffffffffffffffffffffffffffffffffff167f17307eab39ab6107e8899845ad3d59bd9653f200f220920489ca2b5937696c31836040516127269190612d93565b60405180910390a3505050565b61273e848484611ddf565b61274a848484846128b7565b612789576040517f08c379a0000000000000000000000000000000000000000000000000000000008152600401612780906143d4565b60405180910390fd5b50505050565b606060405180602001604052806000815250905090565b60606127b182611c3e565b60006127bb61278f565b905060008151116127db5760405180602001604052806000815250612806565b806127e584612a3e565b6040516020016127f6929190613c17565b6040516020818303038152906040525b915050919050565b6000816000015490506000811161285a576040517f08c379a000000000000000000000000000000000000000000000000000000000815260040161285190614440565b60405180910390fd5b6001810382600001819055505050565b60008073ffffffffffffffffffffffffffffffffffffffff1661288c836120d8565b73ffffffffffffffffffffffffffffffffffffffff1614159050919050565b50505050565b50505050565b60006128d88473ffffffffffffffffffffffffffffffffffffffff16612b0c565b15612a31578373ffffffffffffffffffffffffffffffffffffffff1663150b7a02612901611c89565b8786866040518563ffffffff1660e01b815260040161292394939291906144b5565b6020604051808303816000875af192505050801561295f57506040513d601f19601f8201168201806040525081019061295c9190614516565b60015b6129e1573d806000811461298f576040519150601f19603f3d011682016040523d82523d6000602084013e612994565b606091505b5060008151036129d9576040517f08c379a00000000000000000000000000000000000000000000000000000000081526004016129d0906143d4565b60405180910390fd5b805181602001fd5b63150b7a0260e01b7bffffffffffffffffffffffffffffffffffffffffffffffffffffffff1916817bffffffffffffffffffffffffffffffffffffffffffffffffffffffff191614915050612a36565b600190505b949350505050565b606060006001612a4d84612b2f565b01905060008167ffffffffffffffff811115612a6c57612a6b61307f565b5b6040519080825280601f01601f191660200182016040528015612a9e5781602001600182028036833780820191505090505b509050600082602001820190505b600115612b01578080600190039150507f3031323334353637383961626364656600000000000000000000000000000000600a86061a8153600a8581612af557612af4614543565b5b04945060008503612aac575b819350505050919050565b6000808273ffffffffffffffffffffffffffffffffffffffff163b119050919050565b600080600090507a184f03e93ff9f4daa797ed6e38ed64bf6a1f0100000000000000008310612b8d577a184f03e93ff9f4daa797ed6e38ed64bf6a1f0100000000000000008381612b8357612b82614543565b5b0492506040810190505b6d04ee2d6d415b85acef81000000008310612bca576d04ee2d6d415b85acef81000000008381612bc057612bbf614543565b5b0492506020810190505b662386f26fc100008310612bf957662386f26fc100008381612bef57612bee614543565b5b0492506010810190505b6305f5e1008310612c22576305f5e1008381612c1857612c17614543565b5b0492506008810190505b6127108310612c47576127108381612c3d57612c3c614543565b5b0492506004810190505b60648310612c6a5760648381612c6057612c5f614543565b5b0492506002810190505b600a8310612c79576001810190505b80915050919050565b6040518060a0016040528060008152602001600073ffffffffffffffffffffffffffffffffffffffff168152602001600073ffffffffffffffffffffffffffffffffffffffff168152602001600081526020016000151581525090565b6000604051905090565b600080fd5b600080fd5b60007fffffffff0000000000000000000000000000000000000000000000000000000082169050919050565b612d2881612cf3565b8114612d3357600080fd5b50565b600081359050612d4581612d1f565b92915050565b600060208284031215612d6157612d60612ce9565b5b6000612d6f84828501612d36565b91505092915050565b60008115159050919050565b612d8d81612d78565b82525050565b6000602082019050612da86000830184612d84565b92915050565b6000819050919050565b612dc181612dae565b8114612dcc57600080fd5b50565b600081359050612dde81612db8565b92915050565b60008060408385031215612dfb57612dfa612ce9565b5b6000612e0985828601612dcf565b9250506020612e1a85828601612dcf565b9150509250929050565b600081519050919050565b600082825260208201905092915050565b60005b83811015612e5e578082015181840152602081019050612e43565b60008484015250505050565b6000601f19601f8301169050919050565b6000612e8682612e24565b612e908185612e2f565b9350612ea0818560208601612e40565b612ea981612e6a565b840191505092915050565b60006020820190508181036000830152612ece8184612e7b565b905092915050565b600060208284031215612eec57612eeb612ce9565b5b6000612efa84828501612dcf565b91505092915050565b600073ffffffffffffffffffffffffffffffffffffffff82169050919050565b6000612f2e82612f03565b9050919050565b612f3e81612f23565b82525050565b6000602082019050612f596000830184612f35565b92915050565b612f6881612f23565b8114612f7357600080fd5b50565b600081359050612f8581612f5f565b92915050565b60008060408385031215612fa257612fa1612ce9565b5b6000612fb085828601612f76565b9250506020612fc185828601612dcf565b9150509250929050565b612fd481612dae565b82525050565b6000602082019050612fef6000830184612fcb565b92915050565b60008060006060848603121561300e5761300d612ce9565b5b600061301c86828701612f76565b935050602061302d86828701612f76565b925050604061303e86828701612dcf565b9150509250925092565b60006020828403121561305e5761305d612ce9565b5b600061306c84828501612f76565b91505092915050565b600080fd5b600080fd5b7f4e487b7100000000000000000000000000000000000000000000000000000000600052604160045260246000fd5b6130b782612e6a565b810181811067ffffffffffffffff821117156130d6576130d561307f565b5b80604052505050565b60006130e9612cdf565b90506130f582826130ae565b919050565b600067ffffffffffffffff8211156131155761311461307f565b5b61311e82612e6a565b9050602081019050919050565b82818337600083830152505050565b600061314d613148846130fa565b6130df565b9050828152602081018484840111156131695761316861307a565b5b61317484828561312b565b509392505050565b600082601f83011261319157613190613075565b5b81356131a184826020860161313a565b91505092915050565b600080604083850312156131c1576131c0612ce9565b5b600083013567ffffffffffffffff8111156131df576131de612cee565b5b6131eb8582860161317c565b92505060206131fc85828601612dcf565b9150509250929050565b600081519050919050565b600082825260208201905092915050565b6000819050602082019050919050565b61323b81612dae565b82525050565b600061324c82612f03565b9050919050565b61325c81613241565b82525050565b61326b81612d78565b82525050565b60a0820160008201516132876000850182613232565b50602082015161329a6020850182613253565b5060408201516132ad6040850182613253565b5060608201516132c06060850182613232565b5060808201516132d36080850182613262565b50505050565b60006132e58383613271565b60a08301905092915050565b6000602082019050919050565b600061330982613206565b6133138185613211565b935061331e83613222565b8060005b8381101561334f57815161333688826132d9565b9750613341836132f1565b925050600181019050613322565b5085935050505092915050565b6000602082019050818103600083015261337681846132fe565b905092915050565b61338781612d78565b811461339257600080fd5b50565b6000813590506133a48161337e565b92915050565b600080604083850312156133c1576133c0612ce9565b5b60006133cf85828601612f76565b92505060206133e085828601613395565b9150509250929050565b600067ffffffffffffffff8211156134055761340461307f565b5b61340e82612e6a565b9050602081019050919050565b600061342e613429846133ea565b6130df565b90508281526020810184848401111561344a5761344961307a565b5b61345584828561312b565b509392505050565b600082601f83011261347257613471613075565b5b813561348284826020860161341b565b91505092915050565b600080600080608085870312156134a5576134a4612ce9565b5b60006134b387828801612f76565b94505060206134c487828801612f76565b93505060406134d587828801612dcf565b925050606085013567ffffffffffffffff8111156134f6576134f5612cee565b5b6135028782880161345d565b91505092959194509250565b6000806040838503121561352557613524612ce9565b5b600061353385828601612f76565b925050602061354485828601612f76565b9150509250929050565b7f546f6b656e20646f6573206e6f74206578697374000000000000000000000000600082015250565b6000613584601483612e2f565b915061358f8261354e565b602082019050919050565b600060208201905081810360008301526135b381613577565b9050919050565b7f596f752061726520746865206f776e6572206f66207468697320746f6b656e00600082015250565b60006135f0601f83612e2f565b91506135fb826135ba565b602082019050919050565b6000602082019050818103600083015261361f816135e3565b9050919050565b7f4f6666657220616d6f756e742073686f756c642062652067726561746572207460008201527f68616e2030000000000000000000000000000000000000000000000000000000602082015250565b6000613682602583612e2f565b915061368d82613626565b604082019050919050565b600060208201905081810360008301526136b181613675565b9050919050565b60006040820190506136cd6000830185612f35565b6136da6020830184612fcb565b9392505050565b7f4e487b7100000000000000000000000000000000000000000000000000000000600052602260045260246000fd5b6000600282049050600182168061372857607f821691505b60208210810361373b5761373a6136e1565b5b50919050565b7f4552433732313a20617070726f76616c20746f2063757272656e74206f776e6560008201527f7200000000000000000000000000000000000000000000000000000000000000602082015250565b600061379d602183612e2f565b91506137a882613741565b604082019050919050565b600060208201905081810360008301526137cc81613790565b9050919050565b7f4552433732313a20617070726f76652063616c6c6572206973206e6f7420746f60008201527f6b656e206f776e6572206f7220617070726f76656420666f7220616c6c000000602082015250565b600061382f603d83612e2f565b915061383a826137d3565b604082019050919050565b6000602082019050818103600083015261385e81613822565b9050919050565b7f4552433732313a2063616c6c6572206973206e6f7420746f6b656e206f776e6560008201527f72206f7220617070726f76656400000000000000000000000000000000000000602082015250565b60006138c1602d83612e2f565b91506138cc82613865565b604082019050919050565b600060208201905081810360008301526138f0816138b4565b9050919050565b7f4552433732313a20696e76616c696420746f6b656e2049440000000000000000600082015250565b600061392d601883612e2f565b9150613938826138f7565b602082019050919050565b6000602082019050818103600083015261395c81613920565b9050919050565b7f4552433732313a2061646472657373207a65726f206973206e6f74206120766160008201527f6c6964206f776e65720000000000000000000000000000000000000000000000602082015250565b60006139bf602983612e2f565b91506139ca82613963565b604082019050919050565b600060208201905081810360008301526139ee816139b2565b9050919050565b7f4e487b7100000000000000000000000000000000000000000000000000000000600052601160045260246000fd5b6000613a2f82612dae565b9150613a3a83612dae565b9250828203905081811115613a5257613a516139f5565b5b92915050565b6000613a6382612dae565b9150613a6e83612dae565b9250828201905080821115613a8657613a856139f5565b5b92915050565b7f4e487b7100000000000000000000000000000000000000000000000000000000600052603260045260246000fd5b6000613ac682612dae565b91507fffffffffffffffffffffffffffffffffffffffffffffffffffffffffffffffff8203613af857613af76139f5565b5b600182019050919050565b7f4e6f74204f776e65720000000000000000000000000000000000000000000000600082015250565b6000613b39600983612e2f565b9150613b4482613b03565b602082019050919050565b60006020820190508181036000830152613b6881613b2c565b9050919050565b7f5375626d697420636f7272656374207072696365000000000000000000000000600082015250565b6000613ba5601483612e2f565b9150613bb082613b6f565b602082019050919050565b60006020820190508181036000830152613bd481613b98565b9050919050565b600081905092915050565b6000613bf182612e24565b613bfb8185613bdb565b9350613c0b818560208601612e40565b80840191505092915050565b6000613c238285613be6565b9150613c2f8284613be6565b91508190509392505050565b7f4f6e6c79206f776e65722063616e206c697374206974656d0000000000000000600082015250565b6000613c71601883612e2f565b9150613c7c82613c3b565b602082019050919050565b60006020820190508181036000830152613ca081613c64565b9050919050565b7f6c697374696e6720666565206973206c657373207468616e206c697374696e6760008201527f5072696365000000000000000000000000000000000000000000000000000000602082015250565b6000613d03602583612e2f565b9150613d0e82613ca7565b604082019050919050565b60006020820190508181036000830152613d3281613cf6565b9050919050565b7f4552433732313a207472616e736665722066726f6d20696e636f72726563742060008201527f6f776e6572000000000000000000000000000000000000000000000000000000602082015250565b6000613d95602583612e2f565b9150613da082613d39565b604082019050919050565b60006020820190508181036000830152613dc481613d88565b9050919050565b7f4552433732313a207472616e7366657220746f20746865207a65726f2061646460008201527f7265737300000000000000000000000000000000000000000000000000000000602082015250565b6000613e27602483612e2f565b9150613e3282613dcb565b604082019050919050565b60006020820190508181036000830152613e5681613e1a565b9050919050565b7f4552433732313a206d696e7420746f20746865207a65726f2061646472657373600082015250565b6000613e93602083612e2f565b9150613e9e82613e5d565b602082019050919050565b60006020820190508181036000830152613ec281613e86565b9050919050565b7f4552433732313a20746f6b656e20616c7265616479206d696e74656400000000600082015250565b6000613eff601c83612e2f565b9150613f0a82613ec9565b602082019050919050565b60006020820190508181036000830152613f2e81613ef2565b9050919050565b7f45524337323155524953746f726167653a2055524920736574206f66206e6f6e60008201527f6578697374656e7420746f6b656e000000000000000000000000000000000000602082015250565b6000613f91602e83612e2f565b9150613f9c82613f35565b604082019050919050565b60006020820190508181036000830152613fc081613f84565b9050919050565b60008190508160005260206000209050919050565b60006020601f8301049050919050565b600082821b905092915050565b6000600883026140297fffffffffffffffffffffffffffffffffffffffffffffffffffffffffffffffff82613fec565b6140338683613fec565b95508019841693508086168417925050509392505050565b6000819050919050565b600061407061406b61406684612dae565b61404b565b612dae565b9050919050565b6000819050919050565b61408a83614055565b61409e61409682614077565b848454613ff9565b825550505050565b600090565b6140b36140a6565b6140be818484614081565b505050565b5b818110156140e2576140d76000826140ab565b6001810190506140c4565b5050565b601f821115614127576140f881613fc7565b61410184613fdc565b81016020851015614110578190505b61412461411c85613fdc565b8301826140c3565b50505b505050565b600082821c905092915050565b600061414a6000198460080261412c565b1980831691505092915050565b60006141638383614139565b9150826002028217905092915050565b61417c82612e24565b67ffffffffffffffff8111156141955761419461307f565b5b61419f8254613710565b6141aa8282856140e6565b600060209050601f8311600181146141dd57600084156141cb578287015190505b6141d58582614157565b86555061423d565b601f1984166141eb86613fc7565b60005b82811015614213578489015182556001820191506020850194506020810190506141ee565b86831015614230578489015161422c601f891682614139565b8355505b6001600288020188555050505b505050505050565b7f43616e6e6f742073657420507269636520746f205a65726f0000000000000000600082015250565b600061427b601883612e2f565b915061428682614245565b602082019050919050565b600060208201905081810360008301526142aa8161426e565b9050919050565b60006080820190506142c66000830187612f35565b6142d36020830186612f35565b6142e06040830185612fcb565b6142ed6060830184612d84565b95945050505050565b7f4552433732313a20617070726f766520746f2063616c6c657200000000000000600082015250565b600061432c601983612e2f565b9150614337826142f6565b602082019050919050565b6000602082019050818103600083015261435b8161431f565b9050919050565b7f4552433732313a207472616e7366657220746f206e6f6e20455243373231526560008201527f63656976657220696d706c656d656e7465720000000000000000000000000000602082015250565b60006143be603283612e2f565b91506143c982614362565b604082019050919050565b600060208201905081810360008301526143ed816143b1565b9050919050565b7f436f756e7465723a2064656372656d656e74206f766572666c6f770000000000600082015250565b600061442a601b83612e2f565b9150614435826143f4565b602082019050919050565b600060208201905081810360008301526144598161441d565b9050919050565b600081519050919050565b600082825260208201905092915050565b600061448782614460565b614491818561446b565b93506144a1818560208601612e40565b6144aa81612e6a565b840191505092915050565b60006080820190506144ca6000830187612f35565b6144d76020830186612f35565b6144e46040830185612fcb565b81810360608301526144f6818461447c565b905095945050505050565b60008151905061451081612d1f565b92915050565b60006020828403121561452c5761452b612ce9565b5b600061453a84828501614501565b91505092915050565b7f4e487b7100000000000000000000000000000000000000000000000000000000600052601260045260246000fdfea2646970667358221220daa170b48972e9840dc6a27bba04b03b47e1d23dc8814b0f4c7ba84e2ea83cf164736f6c63430008110033",
  "linkReferences": {},
  "deployedLinkReferences": {}
}